S01F000055415254305F504F4C4C494E475F696E746572727570742E73726563D9
S1130000C6C00000E2C00000E0C00000DEC0000086
S1130010DCC00000DAC00000D8C00000D6C0000078
S1130020D4C00000D2C00000D0C00000CEC0000088
S1130030CCC00000CAC00000C8C00000C6C0000098
S1130040C4C00000C2C0000096C10000BEC00000D1
S1130050BCC00000BAC00000B8C00000B6C00000B8
S1130060B4C00000B2C00000B0C00000AEC00000C8
S1130070ACC00000AAC00000A8C00000A6C00000D8
S1130080A4C00000A2C00000A0C000006E616E0009
S1130090696E660000407A10F35A00A0724E180987
S11300A00010A5D4E80000E87648170000E40B54DB
S11300B0020000CA9A3B000000E1F50500008096AA
S11300C09800000040420F000000A08601000000DC
S11300D0102700000000E803000000006400000096
S11300E000000A00000000000100000000002C765F
S11300F0D888DC674F0823DFC1DFAE59E1B1B7967A
S1130100E5E3E453C63AE651997696E8E6C28426D6
S1130110EB898C9B62ED407C6FFCEFBC9C9F40F2B2
S1130120BAA56FA5F490055A2AF75C936B6CF9672E
S11301306DC11BFCE0E40D47FEF520E6B500D0EDF3
S1130140902E0300943577050080841E080000205B
S11301504E0A000000C80C333333330F986E1283F9
S11301601141EF8D2114893BE65516CFFEE6DB18CD
S1130170D1844B381BF77C1D901DA4BBE424203292
S113018084725E228100C9F124ECA1E53D2711248B
S11301901FBECFEFD0E1DEBFCDBF12E0A0E0B1E0E3
S11301A0ECE7F9E100E00BBF02C007900D92AE321C
S11301B0B107D9F722E0AEE2B2E001C01D92A03A45
S11301C0B207E1F73AD40C94BC0C1ACF80937000B8
S11301D0089584EA80937400E4E7F0E08081882342
S11301E0ECF708958093730084E880937400E4E747
S11301F0F0E080818823ECF70895CF93DF93D82F24
S1130200C62FE7DF8D2FEEDF8C2FECDF84E98093A0
S11302107400DF91CF910895EF92FF920F931F9393
S1130220CF93DF9300D000D0CDB7DEB7282F207F47
S113023030E1839FC0011124922F9D60998329602E
S11302402A83982F9D609B8389608C838E010F5F26
S11302501F4F7E0185E0E80EF11CF80161918F01CA
S11302608EE4CBDF0E151F05C1F70F900F900F9092
S11302700F90DF91CF911F910F91FF90EF90089510
S1130280EF92FF920F931F93CF93DF9300D000D090
S1130290CDB7DEB7282F207F30E1839FC001112422
S11302A0922F9C60998328602A83982F9C609B835B
S11302B088608C838E010F5F1F4F7E0185E0E80EFE
S11302C0F11CF80161918F018EE497DF0E151F0573
S11302D0C1F70F900F900F900F90DF91CF911F9166
S11302E00F91FF90EF90089580E197E26FDF2FEF79
S11302F080E792E0215080409040E1F700C0000088
S113030083E3BEDF82E3BCDF88E2BADF8CE0B8DFE0
S113031086E0B6DF81E0B4DF8FE39CE90197F1F773
S113032000C0000008950F931F93CF93FC018081B8
S1130330882351F08F01C0E06FDFCF5FF801EC0F2D
S1130340F11D80818111F8CFCF911F910F910895F4
S113035081706F7090E4899F600D1124862F8058FE
S11303608FCF0895CF93DF93EA01F2DFCE01DBDF75
S1130370DF91CF9108951F920F920FB60F9211241F
S11303800BB60F922F933F934F935F936F937F938B
S11303908F939F93AF93BF93EF93FF9317D5FF91E1
S11303A0EF91BF91AF919F918F917F916F915F91E9
S11303B04F913F912F910F900BBE0F900FBE0F9056
S11303C01F901895ABE8B0E08C9181608C93EAE8BB
S11303D0F0E08081886080838C9180688C93808138
S11303E083608083109287001092860008958FB5F1
S11303F082608FBD8EB588618EBD8FB580688FBDDC
S11304008EB582608EBD8FE39CE997BD86BD08954D
S11304109F92AF92BF92CF92DF92EF92FF920F938F
S11304201F93CF93DF93CDB7DEB764970FB6F894DD
S1130430DEBF0FBECDBFB8D41CD32FEF8DE399E43C
S1130440215080409040E1F700C0000087E304D3CE
S1130450823929F486E391E00E94000C0CC0805993
S1130460823028F48CE491E00E94000C04C082E6FF
S113047091E00E94000CEFEFFDE329E4E150F0402D
S11304802040E1F700C0000082E0E6D2682F6062FD
S113049082E0D7D283E0E0D2682F606882E0D1D2D4
S11304A08FEF9DE3E9E481509040E040E1F700C024
S11304B0000087E791E0C2D46894FF24F5F80F2E7A
S11304C0F5E0EF2EF02DB12CA12C912CBE016F5F25
S11304D07F4F82E501D48130C9F7F982FA82FB8229
S11304E0FC82FD82CE01019629D4C980D12C60E022
S11304F071E000E010E0FB0180819181C816D9060B
S113050009F45FC19A2D892D4FC18D91419151916B
S113051090E08417950731F42F5F3F4F2530310564
S1130520A1F704C02530310509F039C1C90101978B
S1130530E1E0F0E0EC0FFD1FE80FF91F408150E00F
S1130540220F331FF901EE5EFE4F208131814217E5
S1130550530709F05AC085E090E090932F028093EE
S11305602E0281E08BBB8DE891E00E94000CF80123
S1130570EE0FFF1F000F111F000F111F000F111F9F
S1130580E00FF11FE050FF4F81858F9380858F939B
S113059087818F9386818F9385818F9384818F93B5
S11305A083818F9382818F9381818F9380818F93B5
S11305B086E991E09F938F938E010A5F1F4F1F93EB
S11305C00F930E94300C1F930F9387EA91E09F933F
S11305D08F930E94ED0B4AEA51E060E080E0C2DEB6
S11305E0A80160E081E0BEDEFFEF26E781E0F15084
S11305F020408040E1F700C000000FB6F894DEBF51
S11306000FBECDBF82E090E0E3C0FC01EE0FFF1F00
S1130610E65FFE4F208131814217530709F05AC02B
S113062085E090E090932F0280932E0282E08BBBB2
S113063082EB91E00E94000CF801EE0FFF1F000F07
S1130640111F000F111F000F111FE00FF11FE050C9
S1130650FF4F81858F9380858F9387818F938681C8
S11306608F9385818F9384818F9383818F938281EC
S11306708F9381818F9380818F9386E991E09F93FB
S11306808F938E010A5F1F4F1F930F930E94300CAC
S11306901F930F9387EA91E09F938F930E94ED0B32
S11306A043EC51E060E080E05DDEA80160E081E0C1
S11306B059DEFFEF26E781E0F15020408040E1F76A
S11306C000C000000FB6F894DEBF0FBECDBF81E0BE
S11306D090E07EC0880F991FFC01E050FF4F80819D
S11306E091814817590709F05DC085E090E0909327
S11306F02F0280932E0281E08BBB81ED91E00E945A
S1130700000CF801EE0FFF1F000F111F000F111F47
S1130710000F111FE00FF11FE050FF4F81858F93F1
S113072080858F9387818F9386818F9385818F9323
S113073084818F9383818F9382818F9381818F931F
S113074080818F9386E991E09F938F938E010A5F56
S11307501F4F1F930F930E94300C1F930F9387EA30
S113076091E09F938F930E94ED0B42EE51E060E085
S113077080E0F8DDA80160E081E0F4DDFFEF26E72A
S113078081E0F15020408040E1F700C000000FB646
S1130790F894DEBF0FBECDBF81E090E019C0922F68
S11307A0832F02C09E2D8B2D0F5F1F4F665F7F4FDF
S11307B00430110509F09FCE90932E0280932F02EE
S11307C085CEDE011296FB01329621E030E09DCE0B
S11307D064960FB6F894DEBF0FBECDBFDF91CF9104
S11307E01F910F91FF90EF90DF90CF90BF90AF904B
S11307F09F9008954F925F926F927F928F929F92F3
S1130800AF92BF92CF92DF92EF92FF920F931F931A
S1130810CF93DF938FEF8ABB8BB38BBB87B3806F90
S113082087BB82B18C6882B9E2DDF7D25DDDCADDB7
S1130830789488E291E090939D0280939C02E8DD95
S11308408130910509F0E5C080EF91E0F7D2C6E868
S1130850D0E00F2EFFE7AF2EB12CF02D0F2EFEEBC4
S1130860CF2ED12CF02DEE24EA94F12C0F2EF8EE9D
S11308706F2EF3E07F2EF02D0F2EFCE74F2EF6E0C7
S11308805F2EF02D00E119E028EB3BE048E853E14E
S113089083B1847083B91A9A80913102813011F442
S11308A0B982A88280913102823011F4D982C8823F
S11308B080913102833011F4F982E8828091300210
S11308C0813009F042C07BBC6ABC6FEF83ED90E3DA
S11308D0615080409040E1F700C000005BBC4ABC1E
S11308E06FEF83ED90E3615080409040E1F700C0EA
S11308F000001BBD0ABD6FEF83ED90E361508040A3
S11309009040E1F700C000003BBD2ABD6FEF83EDCE
S113091090E3615080409040E1F700C000005BBD6F
S11309204ABD6FEF83ED90E3615080409040E1F762
S113093000C000003BBD2ABD6FEF83ED90E3615022
S113094080409040E1F700C0000080913202909115
S11309503302019709F09CCF32D24C0149E050E0B8
S113096062E072E0E5D6892B31F51A9A1982188271
S113097049E050E06BE072E0C401DAD6892B21F43F
S113098081E08093310217C049E050E064E172E0F5
S1130990C401CED6892B21F482E0809331020BC0AE
S11309A049E050E06DE172E0C401C2D6892BE9F65A
S11309B083E08093310249E050E06BE072E0C401CF
S11309C0B7D6892B19F481E08093310249E050E0D5
S11309D064E172E0C401ACD6892B19F482E08093FF
S11309E0310249E050E06DE172E0C401A1D6892BE7
S11309F019F483E08093310247E050E066E272E04C
S1130A00C40196D6892B09F03FCF81E08093300250
S1130A1039CF029709F013CFDF91CF911F910F9136
S1130A20FF90EF90DF90CF90BF90AF909F908F900A
S1130A307F906F905F904F900895DCDE80E090E0AF
S1130A400895CF93C62FC098880F8E77B3D18C2F7B
S1130A50B1D1C09ACF910895C098880F8E778068DD
S1130A60A9D180E0A7D1C09A08956FE081E0E9CFD1
S1130A700895FBDF6DE88AE2E4DF6EE38BE2E1DFF9
S1130A806EE18CE2DEDF60E08DE2DBDF60E485E1D5
S1130A90D8DF6DE381E1D5DF84E1DEDF982F937049
S1130AA021F4682F636084E1CCCF08953F924F9284
S1130AB05F926F927F928F929F92AF92BF92CF92EA
S1130AC0DF92EF92FF920F931F93CF93DF93982EB1
S1130AD0F62EE72E442E822E332E58018CE09816E3
S1130AE009F4BAC0EEE09E1203C010E102E102C0B4
S1130AF010E000E084E0B0DF682F6F7784E0A1DFCE
S1130B008AE0AADF682F60688AE09BDF60E081E00A
S1130B1098DF512C612C712C41145104610471042F
S1130B2019F414C010E307E7CF2DDE2DC12CD12C0E
S1130B307601699189E085DFFFEFCF1ADF0AEF0ABA
S1130B40FF0AC414D504E604F70498F3692D81E080
S1130B5078DF8CE0981206C08DE07EDF682F606835
S1130B608DE06FDF84E078DFF82EC0E0D0E0116024
S1130B7009C084E071DFF82E2196CF3CE7E0DE0760
S1130B8009F483C0812F8F21A1F387C00170F02263
S1130B9011F0C2E001C0C1E0FCE09F128AC08AE00B
S1130BA05BDF482E8CE058DF282F2770A9F0842DB6
S1130BB090E00197880F991F880F991F880F991F3C
S1130BC0820F911D092E000CAA0BBB0BF50180832B
S1130BD09183A283B38311C0842D90E0880F991F61
S1130BE0880F991F880F991F092E000CAA0BBB0BA5
S1130BF0F50180839183A283B383442071F0842D13
S1130C00813108F080E1482E512C612C712C411463
S1130C1051046104710429F44CC0412C512C32015B
S1130C204394082D132DC12CD12C760189E014DFB7
S1130C30F80181938F01FFEFCF1ADF0AEF0AFF0A51
S1130C40C414D504E604F70488F333C06CE081E0EF
S1130C50F8DE10E307E780CF84E0FEDE682F6F77CD
S1130C6084E0EFDE8AE0F8DE682F60688AE0E9DE7F
S1130C7060E081E0E6DE512C612C712C41145104BA
S1130C806104710409F04ECFE1CF8DE0E5DE682FF9
S1130C906F778DE0D6DEC3E00CC08DE0DDDE682F1B
S1130CA06F778DE0CEDE86E0D7DE8B7109F46ECFF0
S1130CB0C3E08C2FDF91CF911F910F91FF90EF90A4
S1130CC0DF90CF90BF90AF909F908F907F906F9068
S1130CD05F904F903F900895EF92FF920F931F9370
S1130CE0CF93DF9300D000D0CDB7DEB7182F7B01B0
S1130CF067E08DE0A6DEF70110838E010F5F1F4FC2
S1130D00970141E0B7018CE0D1DE813059F449818B
S1130D105A816B817C81403151056105710519F05F
S1130D2083E001C083E00F900F900F900F90DF914C
S1130D30CF911F910F91FF90EF900895EF92FF9242
S1130D400F931F93CF93DF9300D000D0CDB7DEB7BE
S1130D507C0160E08DE075DE83E9F701808380E249
S1130D6081838E010F5F1F4F970142E0B7018CE032
S1130D709DDE813071F4F701A7014C5F5F4F90E075
S1130D80219192274E175F07D9F7F7012481921317
S1130D9083E00F900F900F900F90DF91CF911F91F0
S1130DA00F91FF90EF90089587E087BBBB9881E592
S1130DB08DB908958FB9779BFECF8FB108951092A6
S1130DC033021092320284E392E008958CB18D30A4
S1130DD011F08A3091F4E0919802F0919902EC5C60
S1130DE0FD4F108281E090E09093330280933202B1
S1130DF010929902109298020895209198023091CD
S1130E009902A9014F5F5F4F509399024093980252
S1130E10F901EC5CFD4F80830895109290008FECF3
S1130E2089B9599AE5E9F0E080818660808388E990
S1130E308AB908955D9BFECF8CB90895CF93DF9353
S1130E40EC018881882329F02196F4DF89918111AE
S1130E50FCCFDF91CF9108952F923F924F925F92F2
S1130E606F927F928F929F92AF92BF92CF92DF92B6
S1130E70EF92FF920F931F93CF93DF93CDB7DEB71B
S1130E8060970FB6F894DEBF0FBECDBF7C011B0187
S1130E906A01FC0117821682838181FF2AC39E01A5
S1130EA02F5F3F4F3901F7019381F10193FD859144
S1130EB093FF81911F01882309F417C3853239F404
S1130EC093FD859193FF81911F01853231F4B70120
S1130ED090E047D456016501E6CF10E0512C912CE7
S1130EE0FFE1F915D8F08B3279F038F4803279F0DB
S1130EF08332A1F4F92DF0612EC08D3261F080337C
S1130F0069F4292D21602DC0392D3260932E892D4D
S1130F108460982E2AC0E92DE86015C097FC2DC086
S1130F2020ED280F2A3088F496FE06C03AE0139F7D
S1130F30200D1124122F19C08AE0589E200D11246F
S1130F40522EE92DE0629E2E10C08E3231F496FCB2
S1130F50CCC2F92DF0649F2E08C08C3621F4292DC3
S1130F602068922E02C0883641F4F10193FD8591E8
S1130F7093FF81911F018111B3CF9BEB980F9330A5
S1130F8020F4992D9061805E07C09BE9980F9330FF
S1130F9008F059C1992D9F7E96FF16E09F73992EF4
S1130FA0853619F49064992E08C0863621F4392FB9
S1130FB03068932E02C01111115097FE07C01C33E4
S1130FC050F444244394410E27E00BC0183038F009
S1130FD027E017E005C027E09CE3492E02C0212F3B
S1130FE0412C560184E0A80EB11CF6016081718188
S1130FF082819381042DA301B8D26C01F981FC870D
S1131000F0FF02C0F3FF06C091FC06C092FE06C0CA
S113101000E205C00DE203C00BE201C000E08C85D4
S11310208C7019F0011143C280C297FE10C04C0CA1
S1131030FC85F4FF04C08A81813309F44A941414B2
S113104074F528E0241578F588E0482E2CC096FC29
S11310502AC0812F90E08C159D059CF03CEFC316AF
S11310603FEFD30674F0892D8068982E0AC0E2E021
S1131070F0E0EC0FFD1FE10FF11D8081803319F4C6
S113108011501111F4CF97FE0EC044244394410E25
S1131090812F90E0C816D9062CF41C1904C04424EE
S11310A0439401C010E097FE06C01C141D0434F4E0
S11310B0C601019605C085E090E002C081E090E0A1
S11310C001110196112331F0212F30E02F5F3F4FA2
S11310D0820F931F252D30E08217930714F4581ABA
S11310E001C0512C892D897041F4552031F0B7018C
S11310F080E290E036D35A94F8CF002321F0B70170
S1131100802F90E02ED393FC08C0552031F0B70116
S113111080E390E026D35A94F8CF97FE4AC0460164
S1131120D7FE02C0812C912CC60188199909F301BC
S1131130E80FF91FFE87ED87960124193109388BD2
S11311402F87012F10E01195019511093FEF8316A8
S1131150930621F4B7018EE290E003D3C814D904B6
S11311604CF08F8598898815990524F4ED85FE85C2
S1131170818101C080E3F1E08F1A91082D853E85BD
S11311802F5F3F4F3E872D878016910624F0B701CD
S113119090E0E7D2DBCFC814D90441F49A819633A6
S11311A020F4953319F43C8534FF81E3B70190E0D2
S11311B048C08A81813319F09C859F7E9C87B70142
S11311C090E0CFD2111105C094FC16C085E690E0E2
S11311D015C0B7018EE290E0C4D21E5F82E001E048
S11311E0080FF301E80FF11D8081B70190E0B9D237
S11311F0802F0113F4CFE8CF85E490E0B701B1D29A
S1131200D7FC06C0C114D10441F4EC85E4FF05C049
S1131210D194C194D1088DE201C08BE2B70190E072
S1131220A0D280E32AE0C216D1042CF08F5FFAE04A
S1131230CF1AD108F7CFB70190E093D2B701C60116
S1131240C0968FD249C1833631F0833779F0833524
S113125009F052C01FC0560132E0A30EB11CF601C2
S11312608081898301E010E0630111C05601F2E03E
S1131270AF0EB11CF601C080D18096FE03C0612F71
S113128070E002C06FEF7FEFC60160D28C01F92DD0
S1131290FF7713C0560122E0A20EB11CF601C080F4
S11312A0D18096FE03C0612F70E002C06FEF7FEF24
S11312B0C60133D28C01F92DF0689F2EF3FD18C0BE
S11312C0852D90E00817190798F4B70180E290E0A3
S11312D048D25A94F5CFF60197FC859197FE8191F7
S11312E06F01B70190E03DD251105A940150110999
S11312F00115110581F7F0C0843611F0893659F5CE
S1131300560197FE09C024E0A20EB11CF6016081CB
S11313107181828193810AC0F2E0AF0EB11CF601A3
S113132060817181072E000C880B990BF92DFF76D3
S11313309F2E97FF09C090958095709561957F4F7A
S11313408F4F9F4FF0689F2E2AE030E0A301B6D262
S1131350C82EC6183EC0092D853721F40F7E2AE019
S113136030E01DC0097F8F3691F018F4883559F0AC
S1131370BCC0803719F0883711F0B7C0006104FF92
S113138009C0046007C094FE08C0066006C028E0D7
S113139030E005C020E130E002C020E132E0560137
S11313A007FF09C084E0A80EB11CF60160817181B9
S11313B08281938108C0F2E0AF0EB11CF601608116
S11313C0718180E090E0A30179D2C82EC6180F770E
S11313D0902E96FE0BC0092D0E7FC11650F494FE7C
S11313E00AC092FC08C0092D0E7E05C0DC2C092D14
S11313F003C0DC2C01C0D12E04FF0DC0FE01EC0D96
S1131400F11D8081803311F4097E09C002FF06C0FA
S1131410D394D39404C0802F867809F0D39403FD29
S113142010C000FF06C01C2DD51478F4150D1D192D
S11314300CC0D51450F4B70180E290E092D1D3945B
S1131440F8CFD51410F45D1801C0512C04FF0FC05F
S1131450B70180E390E085D102FF16C001FD03C00F
S113146088E790E002C088E590E0B7010CC0802FC7
S1131470867851F001FF02C08BE201C080E207FDD3
S11314808DE2B70190E06DD1C11630F4B70180E36D
S113149090E067D11150F8CFCA94F301EC0DF11D1F
S11314A08081B70190E05DD1C110F6CF15C0F4E0A2
S11314B0F51550F584E0581A93FE1EC0011125C09D
S11314C02C8523FF27C00CE810E0392D3071932EB2
S11314D0F8018491811121C0552009F4FCCCB70195
S11314E080E290E03ED15A94F7CFF701868197814C
S11314F023C08FEF9FEF20C0B70180E290E031D18D
S11315005A945110F9CFDACF512CB701802F90E0C3
S113151028D1D6CF00E910E0D8CF91108052B7017E
S113152090E01FD10F5F1F4FD3CF23E0251510F498
S113153083E0C1CF512CC4CF60960FB6F894DEBFC0
S11315400FBECDBFDF91CF911F910F91FF90EF9010
S1131550DF90CF90BF90AF909F908F907F906F90CF
S11315605F904F903F902F900895283008F027E027
S11315703327DA01990F311D87FD916000966105CB
S1131580710539F432602E5F3D9330E32A95E1F71B
S113159008959F3F30F080387105610509F03C5F84
S11315A03C5F3D93913008F08068911DDF93CF93A9
S11315B01F930F93FF92EF92192F987F9695E92F1F
S11315C096959695E90FFF27E251FF4F9927332708
S11315D0EE24FF24A701E70105900894079428F45A
S11315E0360FE71EF81E491F511D660F771F881F0F
S11315F0991F0694A1F70590079428F4E70EF81EA6
S1131600491F561FC11D770F881F991F661F069417
S1131610A1F70590079428F4F80E491F561FC71F19
S1131620D11D880F991F661F771F0694A1F7059097
S1131630079420F4490F561FC71FD81F990F661F20
S1131640771F881F0694A9F784911095177041F0AD
S1131650D695C79557954795F794E7941A95C1F78A
S1131660E4E9F0E0689415901591359165919591B0
S113167005907FE27395E118F10A430B560BC90BF1
S1131680D009C0F7E10CF11E431F561FC91FD01D1E
S11316907EF4703311F48A95E6CFE894015030F06B
S11316A0080F0AF40027021708F4202F2395022FAD
S11316B07A3328F079E37D932A95E9F710C07D9376
S11316C02A9589F6069497956795379517951794F3
S11316D0E118F10A430B560BC90BD00998F0239576
S11316E07E9173957A3308F070E37C932013B8F7F6
S11316F07E9170617D9330F0839571E37D9370E307
S11317002A95E1F71124EF90FF900F911F91CF914B
S1131710DF91992787FD90950895FC01059061500C
S113172070400110D8F7809590958E0F9F1F0895F3
S1131730FB01DC014150504030F08D910190801943
S113174019F40020B9F7881B990B0895FC01615026
S1131750704001900110D8F7809590958E0F9F1FCF
S113176008950F931F93CF93DF93FB01238121FDF2
S113177003C08FEF9FEF2CC022FF16C04681578114
S1131780248135814217530744F4A081B1819D011E
S11317902F5F3F4F318320838C93268137812F5FC6
S11317A03F4F3783268314C08B01EC01FB01008477
S11317B0F185E02D0995892BE1F6D80116968D91D6
S11317C09C911797019617969C938E931697CE012A
S11317D0DF91CF911F910F910895CF93DF93CDB7F0
S11317E0DEB7AE014B5F5F4FFA0161917191AF01BA
S11317F080919C0290919D022FDBDF91CF910895FF
S11318000F931F93CF93DF93E0919C02F0919D027D
S1131810238121FF1BC08C01D0E0C0E0F80181913D
S11318208F0160919C0270919D02DB011896ED91ED
S1131830FC911997882331F00995892B79F3DFEF0F
S1131840CFEFECCF8AE00995892B19F08FEF9FEF4A
S113185002C08D2F9C2FDF91CF911F910F9108957E
S11318600F931F93CF93DF93CDB7DEB72E970FB6A9
S1131870F894DEBF0FBECDBF0D891E8986E08C8330
S11318801A8309838FEF9FE79E838D83AE01475EA2
S11318905F4F6F89788DCE010196DEDAEF81F8858E
S11318A0E00FF11F10822E960FB6F894DEBF0FBE24
S11318B0CDBFDF91CF911F910F910895FA01AA270F
S11318C0283051F1203181F1E8946F936E7F6E5F7F
S11318D07F4F8F4F9F4FAF4FB1E03ED0B4E03CD02D
S11318E0670F781F891F9A1FA11D680F791F8A1F10
S11318F0911DA11D6A0F711D811D911DA11D20D077
S113190009F468943F912AE0269F11243019305D30
S11319103193DEF6CF010895462F4770405D419321
S1131920B3E00FD0C9F7F6CF462F4F70405D4A336E
S113193018F0495D31FD4052419302D0A9F7EACF36
S1131940B4E0A6959795879577956795BA95C9F765
S113195000976105710508959B01AC010A2E069458
S11319605795479537952795BA95C9F7620F731F11
S10F1970841F951FA01D0895F894FFCF5C
S113197CD900A300B700C1000C00C900EC00DB00C7
S113198CC1003F00E4003900AF002A00580006AE45
S113199C9C1B2F002000200000000002000000000F
S11319AC1A07000000005243353232763220446567
S11319BC746563746564212121210D005243353211
S11319CC3276312044657465637465642121212168
S11319DC0D004E6F2072656164657220466F756EE2
S11319EC64212121210D0073706920726669645F82
S11319FC726335323220746573740D0A00474F4F8D
S1131A0C444259450D002564202564202564202575
S1131A1C642025640D0A00257300474F4F44425936
S1131A2C450048454C4C4F57204B494D485945535C
S1131A3C550D004B494D485945535520434F4D4581
S1131A4C0048454C4C4F57204A494E535542524F2F
S1131A5C0D004A494E535542524F20434F4D4500B9
S1131A6C534D4152542046414E2053544152540D2F
S1131A7C0A006D6F746F726F6666006D6F746F72AF
S1131A8C6F6E61006D6F746F726F6E62006D6F7448
S1111A9C6F726F6E6300726F74617465000088
S9030000FC
