S015000055415254305F504F4C4C494E472E737265632F
S113000045C0000058C0000056C0000054C00000A5
S113001052C0000050C000004EC000004CC00000A0
S11300204AC0000048C0000046C0000044C00000B0
S113003042C0000040C000003EC000003CC00000C0
S11300403AC0000038C0000036C0000034C00000D0
S113005032C0000030C000002EC000002CC00000E0
S11300602AC0000028C0000026C0000024C00000F0
S113007022C0000020C000001EC000001CC0000000
S11300801AC0000018C0000016C0000011241FBED2
S1130090CFEFD0E1DEBFCDBF11E0A0E0B1E0E8EAF0
S11300A0F1E000E00BBF02C007900D92AC38B1073D
S11300B0D9F746D077C0A4CFCF93DF93CDB7DEB7BF
S11300C0C456D1090FB6F894DEBF0FBECDBF8FEF73
S11300D08ABB37D080E091E049D0CE0101965C0123
S11300E0C82EDB2CFE0131967F0100E010E03AD0EF
S11300F08D3071F4F501E00FF11F108247E050E0FC
S11301006CE171E08C2D9D2D3FD0892B59F406C0F4
S11301100F5F1F4FF70181937F01E9CFD89A83E2E4
S113012091E024D048E050E069E371E08C2D9D2DEE
S11301302BD0892BB9F6D89881E491E017D0D2CF8F
S1130140BBDF109290008FEC89B9599AE5E9F0E091
S113015080818660808388E18AB908955D9BFECFA3
S11301608CB908955F9BFECF8CB10895CF93DF9334
S1130170EC018881882329F02196F0DF899181118F
S1130180FCCFDF91CF910895FB01DC014150504039
S113019030F08D910190801919F40020B9F7881B73
S10B01A0990B0895F894FFCFB8
S11301A855415254302052583C2D3E5458207374B3
S11301B872696E6720746573740D0A006C65643027
S11301C86F6E006C6564306F6E206368616E67657E
S11301D8642E2E2E2E200D0A006C6564306F666620
S11301E8006C6564306F6666206368616E67656479
S11301F82E2E2E2E0D0A0055415254302052582DC1
S11302083E5458206C6F6F706261636B2074657321
S1130218740D0A0053544D41525420466163746F5F
S10F022872792021212121210D0A0000FF
S9030000FC
